{
  "contractName": "BidMarket",
  "abi": [
    {
      "inputs": [
        {
          "internalType": "string",
          "name": "ContractName",
          "type": "string"
        },
        {
          "internalType": "uint256",
          "name": "targetAmount",
          "type": "uint256"
        },
        {
          "internalType": "uint256",
          "name": "duration",
          "type": "uint256"
        },
        {
          "internalType": "address payable",
          "name": "beneficiary",
          "type": "address"
        }
      ],
      "stateMutability": "nonpayable",
      "type": "constructor"
    },
    {
      "anonymous": false,
      "inputs": [
        {
          "indexed": false,
          "internalType": "address",
          "name": "addr",
          "type": "address"
        },
        {
          "indexed": false,
          "internalType": "uint256",
          "name": "totalCollected",
          "type": "uint256"
        },
        {
          "indexed": false,
          "internalType": "bool",
          "name": "succeeded",
          "type": "bool"
        }
      ],
      "name": "CampaignFinished",
      "type": "event"
    },
    {
      "inputs": [],
      "name": "Beneficiary",
      "outputs": [
        {
          "internalType": "address payable",
          "name": "",
          "type": "address"
        }
      ],
      "stateMutability": "view",
      "type": "function",
      "constant": true
    },
    {
      "inputs": [],
      "name": "FundingDeadline",
      "outputs": [
        {
          "internalType": "uint256",
          "name": "",
          "type": "uint256"
        }
      ],
      "stateMutability": "view",
      "type": "function",
      "constant": true
    },
    {
      "inputs": [],
      "name": "Name",
      "outputs": [
        {
          "internalType": "string",
          "name": "",
          "type": "string"
        }
      ],
      "stateMutability": "view",
      "type": "function",
      "constant": true
    },
    {
      "inputs": [],
      "name": "TargetAmount",
      "outputs": [
        {
          "internalType": "uint256",
          "name": "",
          "type": "uint256"
        }
      ],
      "stateMutability": "view",
      "type": "function",
      "constant": true
    },
    {
      "inputs": [
        {
          "internalType": "address",
          "name": "",
          "type": "address"
        }
      ],
      "name": "amounts",
      "outputs": [
        {
          "internalType": "uint256",
          "name": "",
          "type": "uint256"
        }
      ],
      "stateMutability": "view",
      "type": "function",
      "constant": true
    },
    {
      "inputs": [],
      "name": "state",
      "outputs": [
        {
          "internalType": "enum BidMarket.State",
          "name": "",
          "type": "uint8"
        }
      ],
      "stateMutability": "view",
      "type": "function",
      "constant": true
    },
    {
      "inputs": [],
      "name": "totalCollected",
      "outputs": [
        {
          "internalType": "uint256",
          "name": "",
          "type": "uint256"
        }
      ],
      "stateMutability": "view",
      "type": "function",
      "constant": true
    },
    {
      "inputs": [],
      "name": "bid",
      "outputs": [],
      "stateMutability": "payable",
      "type": "function",
      "payable": true
    },
    {
      "inputs": [],
      "name": "finishBid",
      "outputs": [],
      "stateMutability": "nonpayable",
      "type": "function"
    },
    {
      "inputs": [],
      "name": "collect",
      "outputs": [],
      "stateMutability": "nonpayable",
      "type": "function"
    },
    {
      "inputs": [],
      "name": "withdraw",
      "outputs": [],
      "stateMutability": "nonpayable",
      "type": "function"
    },
    {
      "inputs": [],
      "name": "removeContract",
      "outputs": [],
      "stateMutability": "nonpayable",
      "type": "function"
    },
    {
      "inputs": [],
      "name": "updateContract",
      "outputs": [],
      "stateMutability": "nonpayable",
      "type": "function"
    },
    {
      "inputs": [
        {
          "internalType": "uint256",
          "name": "itemId",
          "type": "uint256"
        }
      ],
      "name": "remoteItem",
      "outputs": [],
      "stateMutability": "nonpayable",
      "type": "function"
    }
  ],
  "bytecode": "0x60806040523480156200001157600080fd5b50604051620012c7380380620012c78339818101604052810190620000379190620003f8565b83600490805190602001906200004f9291906200010b565b50826005819055506201518082620000689190620004b8565b620000786200010360201b60201c565b62000084919062000519565b60068190555080600760006101000a81548173ffffffffffffffffffffffffffffffffffffffff021916908373ffffffffffffffffffffffffffffffffffffffff1602179055506000600760146101000a81548160ff02191690836003811115620000f457620000f362000576565b5b0217905550505050506200060a565b600042905090565b8280546200011990620005d4565b90600052602060002090601f0160209004810192826200013d576000855562000189565b82601f106200015857805160ff191683800117855562000189565b8280016001018555821562000189579182015b82811115620001885782518255916020019190600101906200016b565b5b5090506200019891906200019c565b5090565b5b80821115620001b75760008160009055506001016200019d565b5090565b6000604051905090565b600080fd5b600080fd5b600080fd5b600080fd5b6000601f19601f8301169050919050565b7f4e487b7100000000000000000000000000000000000000000000000000000000600052604160045260246000fd5b6200022482620001d9565b810181811067ffffffffffffffff82111715620002465762000245620001ea565b5b80604052505050565b60006200025b620001bb565b905062000269828262000219565b919050565b600067ffffffffffffffff8211156200028c576200028b620001ea565b5b6200029782620001d9565b9050602081019050919050565b60005b83811015620002c4578082015181840152602081019050620002a7565b83811115620002d4576000848401525b50505050565b6000620002f1620002eb846200026e565b6200024f565b90508281526020810184848401111562000310576200030f620001d4565b5b6200031d848285620002a4565b509392505050565b600082601f8301126200033d576200033c620001cf565b5b81516200034f848260208601620002da565b91505092915050565b6000819050919050565b6200036d8162000358565b81146200037957600080fd5b50565b6000815190506200038d8162000362565b92915050565b600073ffffffffffffffffffffffffffffffffffffffff82169050919050565b6000620003c08262000393565b9050919050565b620003d281620003b3565b8114620003de57600080fd5b50565b600081519050620003f281620003c7565b92915050565b60008060008060808587031215620004155762000414620001c5565b5b600085015167ffffffffffffffff811115620004365762000435620001ca565b5b620004448782880162000325565b945050602062000457878288016200037c565b93505060406200046a878288016200037c565b92505060606200047d87828801620003e1565b91505092959194509250565b7f4e487b7100000000000000000000000000000000000000000000000000000000600052601160045260246000fd5b6000620004c58262000358565b9150620004d28362000358565b9250817fffffffffffffffffffffffffffffffffffffffffffffffffffffffffffffffff04831182151516156200050e576200050d62000489565b5b828202905092915050565b6000620005268262000358565b9150620005338362000358565b9250827fffffffffffffffffffffffffffffffffffffffffffffffffffffffffffffffff038211156200056b576200056a62000489565b5b828201905092915050565b7f4e487b7100000000000000000000000000000000000000000000000000000000600052602160045260246000fd5b7f4e487b7100000000000000000000000000000000000000000000000000000000600052602260045260246000fd5b60006002820490506001821680620005ed57607f821691505b60208210811415620006045762000603620005a5565b5b50919050565b610cad806200061a6000396000f3fe6080604052600436106100dd5760003560e01c8063a241c0891161007f578063e29eb83611610059578063e29eb83614610243578063e52253811461026e578063ef8ff63414610285578063fe389e09146102b0576100dd565b8063a241c089146101d6578063c19d93fb146101ed578063d16e18f514610218576100dd565b8063484cef4a116100bb578063484cef4a1461011a57806355a3b2c11461014357806373d55379146101805780638052474d146101ab576100dd565b80631998aeef146100e257806325aa890e146100ec5780633ccfd60b14610103575b600080fd5b6100ea6102c7565b005b3480156100f857600080fd5b506101016103d6565b005b34801561010f57600080fd5b50610118610448565b005b34801561012657600080fd5b50610141600480360381019061013c919061084e565b61050f565b005b34801561014f57600080fd5b5061016a600480360381019061016591906108d9565b61056e565b6040516101779190610915565b60405180910390f35b34801561018c57600080fd5b50610195610586565b6040516101a29190610951565b60405180910390f35b3480156101b757600080fd5b506101c06105ac565b6040516101cd9190610a05565b60405180910390f35b3480156101e257600080fd5b506101eb61063a565b005b3480156101f957600080fd5b506102026106d6565b60405161020f9190610a9e565b60405180910390f35b34801561022457600080fd5b5061022d6106e9565b60405161023a9190610915565b60405180910390f35b34801561024f57600080fd5b506102586106ef565b6040516102659190610915565b60405180910390f35b34801561027a57600080fd5b506102836106f5565b005b34801561029157600080fd5b5061029a6107b1565b6040516102a79190610915565b60405180910390f35b3480156102bc57600080fd5b506102c56107b7565b005b60008060038111156102dc576102db610a27565b5b600760149054906101000a900460ff1660038111156102fe576102fd610a27565b5b1461033e576040517f08c379a000000000000000000000000000000000000000000000000000000000815260040161033590610b05565b60405180910390fd5b346000803373ffffffffffffffffffffffffffffffffffffffff1673ffffffffffffffffffffffffffffffffffffffff168152602001908152602001600020600082825461038c9190610b54565b9250508190555034600260008282546103a59190610b54565b92505081905550600554600254106103d3576001600760156101000a81548160ff0219169083151502179055505b50565b600760159054906101000a900460ff1661041a576001600760146101000a81548160ff021916908360038111156104105761040f610a27565b5b0217905550610446565b6002600760146101000a81548160ff021916908360038111156104405761043f610a27565b5b02179055505b565b60008060003373ffffffffffffffffffffffffffffffffffffffff1673ffffffffffffffffffffffffffffffffffffffff16815260200190815260200160002054116104c9576040517f08c379a00000000000000000000000000000000000000000000000000000000081526004016104c090610bf6565b60405180910390fd5b60008060003373ffffffffffffffffffffffffffffffffffffffff1673ffffffffffffffffffffffffffffffffffffffff16815260200190815260200160002081905550565b600360009054906101000a900473ffffffffffffffffffffffffffffffffffffffff168073ffffffffffffffffffffffffffffffffffffffff163373ffffffffffffffffffffffffffffffffffffffff161461056a57600080fd5b5050565b60006020528060005260406000206000915090505481565b600760009054906101000a900473ffffffffffffffffffffffffffffffffffffffff1681565b600480546105b990610c45565b80601f01602080910402602001604051908101604052809291908181526020018280546105e590610c45565b80156106325780601f1061060757610100808354040283529160200191610632565b820191906000526020600020905b81548152906001019060200180831161061557829003601f168201915b505050505081565b600160009054906101000a900473ffffffffffffffffffffffffffffffffffffffff1673ffffffffffffffffffffffffffffffffffffffff163373ffffffffffffffffffffffffffffffffffffffff161461069457600080fd5b600060038111156106a8576106a7610a27565b5b600760149054906101000a900460ff1660038111156106ca576106c9610a27565b5b146106d457600080fd5b565b600760149054906101000a900460ff1681565b60055481565b60025481565b600760009054906101000a900473ffffffffffffffffffffffffffffffffffffffff1673ffffffffffffffffffffffffffffffffffffffff166108fc6002549081150290604051600060405180830381858888f1935050505015610783576003600760146101000a81548160ff0219169083600381111561077957610778610a27565b5b02179055506107af565b6001600760146101000a81548160ff021916908360038111156107a9576107a8610a27565b5b02179055505b565b60065481565b600160009054906101000a900473ffffffffffffffffffffffffffffffffffffffff1673ffffffffffffffffffffffffffffffffffffffff163373ffffffffffffffffffffffffffffffffffffffff161461081157600080fd5b565b600080fd5b6000819050919050565b61082b81610818565b811461083657600080fd5b50565b60008135905061084881610822565b92915050565b60006020828403121561086457610863610813565b5b600061087284828501610839565b91505092915050565b600073ffffffffffffffffffffffffffffffffffffffff82169050919050565b60006108a68261087b565b9050919050565b6108b68161089b565b81146108c157600080fd5b50565b6000813590506108d3816108ad565b92915050565b6000602082840312156108ef576108ee610813565b5b60006108fd848285016108c4565b91505092915050565b61090f81610818565b82525050565b600060208201905061092a6000830184610906565b92915050565b600061093b8261087b565b9050919050565b61094b81610930565b82525050565b60006020820190506109666000830184610942565b92915050565b600081519050919050565b600082825260208201905092915050565b60005b838110156109a657808201518184015260208101905061098b565b838111156109b5576000848401525b50505050565b6000601f19601f8301169050919050565b60006109d78261096c565b6109e18185610977565b93506109f1818560208601610988565b6109fa816109bb565b840191505092915050565b60006020820190508181036000830152610a1f81846109cc565b905092915050565b7f4e487b7100000000000000000000000000000000000000000000000000000000600052602160045260246000fd5b60048110610a6757610a66610a27565b5b50565b6000819050610a7882610a56565b919050565b6000610a8882610a6a565b9050919050565b610a9881610a7d565b82525050565b6000602082019050610ab36000830184610a8f565b92915050565b7f496e76616c696420537461746500000000000000000000000000000000000000600082015250565b6000610aef600d83610977565b9150610afa82610ab9565b602082019050919050565b60006020820190508181036000830152610b1e81610ae2565b9050919050565b7f4e487b7100000000000000000000000000000000000000000000000000000000600052601160045260246000fd5b6000610b5f82610818565b9150610b6a83610818565b9250827fffffffffffffffffffffffffffffffffffffffffffffffffffffffffffffffff03821115610b9f57610b9e610b25565b5b828201905092915050565b7f4e6f7468696e672077617320636f6e7472696275746564000000000000000000600082015250565b6000610be0601783610977565b9150610beb82610baa565b602082019050919050565b60006020820190508181036000830152610c0f81610bd3565b9050919050565b7f4e487b7100000000000000000000000000000000000000000000000000000000600052602260045260246000fd5b60006002820490506001821680610c5d57607f821691505b60208210811415610c7157610c70610c16565b5b5091905056fea26469706673582212205c82ddec256c1aec3328050dde6624ad73800fbe8c4ef602066d964cd7e3c63a64736f6c634300080a0033",
  "immutableReferences": {},
  "source": "// SPDX-License-Identifier: MIT\npragma solidity >=0.4.22 <0.9.0;\n\nimport \"./Market.sol\";\n//import \"./NumLib.sol\";\n\ncontract BidMarket {//is Market {\n    //using NumLib for int;\n    //using Utils for *;\n\n    /*\n    function exemple(int value) {\n        return value.negative();\n    }\n    */\n\n    enum State {\n        Ongoing,\n        Failed,\n        Succeeded,\n        PaidOut\n    }\n\n    mapping(address => uint) public amounts;\n\n    address payable owner; // = msg.sender;\n    uint public totalCollected;\n\n    address moderator;\n    string public Name;\n    uint public TargetAmount;\n    uint public FundingDeadline;\n    address payable public Beneficiary;\n    State public state;\n    bool collected;\n\n    modifier ownerOnly {\n        require(msg.sender == owner);\n        _;\n    }\n\n    modifier onlyBy(address addr) {\n        require(msg.sender == addr);\n        _;\n    }\n\n    modifier gameStarted() {\n        require(state == State.Ongoing);\n        _;\n    }\n\n    modifier inState(State expectedState) {\n        require(state == expectedState, \"Invalid State\");\n        _;\n    }\n\n    constructor(string memory ContractName, uint targetAmount, uint duration, address payable beneficiary) {\n        Name = ContractName;\n        TargetAmount = targetAmount;\n        FundingDeadline = currentTime() + duration * 1 days;\n        Beneficiary = beneficiary;\n        state = State.Ongoing;\n    }\n\n    function currentTime() internal view returns(uint) {\n        return block.timestamp;\n    }\n\n    function bid() public payable inState(State.Ongoing) {\n        amounts[msg.sender] += msg.value;\n        totalCollected += msg.value;\n\n        if (totalCollected >= TargetAmount) {\n            collected = true; \n        }\n    }\n\n    function finishBid() public {\n        //require(!beforeDeadLine(), \"Cannot finish campaign before the end\");\n\n        if (!collected) {\n            state = State.Failed;\n        } else {\n            state = State.Succeeded;\n        }\n\n        //emit CampaignFinished(this, totalCollected, collected);\n    }\n\n    function collect() public {\n        if (Beneficiary.send(totalCollected)) {\n            state = State.PaidOut;\n        } else {\n            state = State.Failed;\n        }\n\n    }\n\n    function withdraw() public {\n        require(amounts[msg.sender] > 0, \"Nothing was contributed\");\n        //uint contributed = amounts[msg.sender];\n        amounts[msg.sender] = 0;\n\n        /*\n        if (!msg.sender.send(contributed)) {\n            amounts[msg.sender] = contributed;\n        }\n        */\n    }\n\n    function removeContract() public ownerOnly {}\n\n    function updateContract() public ownerOnly gameStarted {}\n\n    function remoteItem(uint itemId) public onlyBy(moderator) {}\n\n    event CampaignFinished(address addr, uint totalCollected, bool succeeded);\n\n//////////\n\n/*\n    event ItemForSale(\n        uint Id,\n        uint price\n        //,\n        //uint indexed type\n    );\n\n    function saleItem(uint Id, uint price) {\n        emit ItemForSale(1, 4000);\n    }\n*/\n\n    //contract.events.ItemForSale({ filter: { type: [0,1] }, fomrBlock: 0, toBlock: 'latest' }, function(err, event) { log(event); })\n\n}",
  "sourcePath": "/Users/titolim/DEV/BidMarket/contracts/BidMarket.sol",
  "compiler": {
    "name": "solc",
    "version": "0.8.10+commit.fc410830.Emscripten.clang"
  },
  "schemaVersion": "3.4.3",
  "updatedAt": "2021-12-13T02:23:07.428Z",
  "networkType": "ethereum",
  "devdoc": {
    "kind": "dev",
    "methods": {},
    "version": 1
  },
  "userdoc": {
    "kind": "user",
    "methods": {},
    "version": 1
  }
}